:1000000002308A00072A0000FF00030E8301A100CE
:100010000A08A0008A010408A2007708A300780853
:10002000A4007908A5007A08A60003170D08031399
:10003000A70003170F080313A80003170C080313E6
:10004000A90003170E080313AA00831383120B1EC3
:100050002B288B184C28220884002308F70024083A
:10006000F8002508F9002608FA00270803178D0074
:100070000313280803178F000313290803178C00A4
:1000800003132A0803178E00031320088A00210E89
:100090008300FF0E7F0E09008A110A126428423085
:1000A000840083130008031963280130F800F70166
:1000B000F70B5828F80B57284A30F700F70B5E2843
:1000C0006128800B55280800831605100130831223
:1000D0008506C830C2004F208316051001308312F8
:1000E00085068B108A110A122B280C004927D6226C
:1000F0005227412245294F10CC204210C422A0266D
:10010000C921D227530049346C3475346D346934B5
:100110006E346134633469346F346E343A3420346D
:100120000034743465346D34703465347234613441
:1001300064347534723461343A3420340034400EFF
:10014000F039F7000F300805770488000000081424
:10015000A928081008000808F700080E0F39F80051
:1001600008008316081088100811831288100F30B9
:1001700083160805F038880083120815000008145B
:100180000000AB207808C000081000000814000030
:10019000AB207808BF0008100F30831608058800D0
:1001A0008312400EF700F030F70577083F04F8009F
:1001B0007808BF00BF1BB7283D1C88103D18881465
:1001C00000000811000008103E0EBF000F30BF05F0
:1001D0003F08C0009F203E080F39BF00C0009F208D
:1001E00008002830B6000C30B7000130B8000630E7
:1001F000B9000810881008110F3083160805880010
:100200000810881008118312AB018B1BAB178B13DE
:100210000F30C2004F20AB1B8B170130B5003508E3
:10022000033C031C21290330C0009F20AB018B1B22
:10023000AB178B130530C2004F20AB1B8B17B50AD1
:100240000F290230C0009F20AB018B1BAB178B1313
:100250000530C2004F20AB1B8B17B5013508033C9E
:10026000031C3E2936303507840083130008BA008A
:10027000BD013A08BE00B120B50A2E298A110A1222
:10028000422A3A0B442947294030BB004829BB0188
:1002900001303902BB073B088038BC00BD013C0877
:1002A000BE00B12008003808073A031961290B3A4B
:1002B00003196629063A03197429023A03197A299F
:1002C0007F290130B900BA0041218429BD010130E4
:1002D000BE00B120AB018B1BAB178B130230C200E9
:1002E0004F20AB1B8B1784290130B9000230BA00B4
:1002F00041218429BD011030BE00B1208429013084
:10030000BD003808BE00B12008000B08B5008B13F3
:10031000831603178C170C140000000083120313BC
:10032000B51B8B1703170C087F390319D929031341
:10033000B50003170D080313B60003170F080313C6
:10034000B7003508B8005321360803178D00031392
:10035000370803178F0003130B08B8008B1383169D
:1003600003178C170C140000000083120313B81B32
:100370008B1703170C0D0E0D7F390319D9290313A1
:10038000B50003170D080313B60003170F08031376
:10039000B7003508B8005321360803178D00031342
:1003A000370803178F008D0A03198F0A0313852955
:1003B000031703130800B6013608F8008A110A1261
:1003C0007B2A35081D3C031CED292E0BED29AE01BF
:1003D000831685100230831285068A110A12802A3C
:1003E00035081D3C031CFE29AE08031DFE29013003
:1003F000AE00831685100230831285068A110A1218
:10040000832AB6013608F8008A110A12912A0308D5
:100410001F398300FF30B200831603170908C03963
:10042000890003131F129F120030031788008312E4
:100430008701880189018313003083160313850027
:10044000FF30860083121F179F1783169F13831296
:100450001F14831603170908C039043889000313D1
:100460001F129F120030031788000908C039013895
:10047000890003131F129F12003003178800831294
:100480000313F128753003178D0000308F0003131C
:100490008521BB30B0000130B1003102F800780D89
:1004A000F700F70DF70DF830F705770806389200DA
:1004B00030088316920083123211320883168700A7
:1004C000831207110C30970083169B019C010130A9
:1004D0009D00C03083128B040B162830F8001F08D3
:1004E000C33978049F009F149F18742A1E08B30014
:1004F0003308B500DB297808AD002D08B500E129E7
:100500002D08B500F0292030F8001F08C339780401
:100510009F009F149F188A2A1E08B4003408B50053
:10052000012A7808AC002C081E3C0318C92A34089C
:1005300095000330B9000130BA004121763003172D
:100540008D0000308F00031385210630B900023082
:10055000BA0041210030FA008330B5007A08B600B5
:100560002D08B5070318B60A3508B800532109301D
:10057000B9000230BA0041210030FA009130B500D4
:100580007A08B6002C08B5070318B60A3508B80073
:0605900053216D2A6300F7
:04400E00E12CFF3F63
:00000001FF
;PIC16F887
;CRC=3535  CREATED="08-dic.-22 14:59"
